{
  "_format": "hh-sol-artifact-1",
  "contractName": "HerbTrace",
  "sourceName": "contracts/HerbTrace.sol",
  "abi": [
    {
      "inputs": [],
      "stateMutability": "nonpayable",
      "type": "constructor"
    },
    {
      "anonymous": false,
      "inputs": [
        {
          "indexed": false,
          "internalType": "string",
          "name": "batchId",
          "type": "string"
        },
        {
          "indexed": false,
          "internalType": "uint256",
          "name": "timestamp",
          "type": "uint256"
        }
      ],
      "name": "BatchCompleted",
      "type": "event"
    },
    {
      "anonymous": false,
      "inputs": [
        {
          "indexed": false,
          "internalType": "string",
          "name": "batchId",
          "type": "string"
        },
        {
          "indexed": false,
          "internalType": "string",
          "name": "herbName",
          "type": "string"
        },
        {
          "indexed": false,
          "internalType": "address",
          "name": "collector",
          "type": "address"
        },
        {
          "indexed": false,
          "internalType": "uint256",
          "name": "timestamp",
          "type": "uint256"
        }
      ],
      "name": "BatchCreated",
      "type": "event"
    },
    {
      "anonymous": false,
      "inputs": [
        {
          "indexed": false,
          "internalType": "string",
          "name": "batchId",
          "type": "string"
        },
        {
          "indexed": false,
          "internalType": "enum HerbTrace.NodeType",
          "name": "nodeType",
          "type": "uint8"
        },
        {
          "indexed": false,
          "internalType": "address",
          "name": "actor",
          "type": "address"
        },
        {
          "indexed": false,
          "internalType": "uint256",
          "name": "timestamp",
          "type": "uint256"
        }
      ],
      "name": "EventLogged",
      "type": "event"
    },
    {
      "anonymous": false,
      "inputs": [
        {
          "indexed": false,
          "internalType": "address",
          "name": "wallet",
          "type": "address"
        },
        {
          "indexed": false,
          "internalType": "uint8",
          "name": "role",
          "type": "uint8"
        },
        {
          "indexed": false,
          "internalType": "string",
          "name": "name",
          "type": "string"
        }
      ],
      "name": "RoleAssigned",
      "type": "event"
    },
    {
      "inputs": [
        {
          "internalType": "address",
          "name": "",
          "type": "address"
        }
      ],
      "name": "actorNames",
      "outputs": [
        {
          "internalType": "string",
          "name": "",
          "type": "string"
        }
      ],
      "stateMutability": "view",
      "type": "function"
    },
    {
      "inputs": [
        {
          "internalType": "uint256",
          "name": "",
          "type": "uint256"
        }
      ],
      "name": "allBatchIds",
      "outputs": [
        {
          "internalType": "string",
          "name": "",
          "type": "string"
        }
      ],
      "stateMutability": "view",
      "type": "function"
    },
    {
      "inputs": [
        {
          "internalType": "address",
          "name": "wallet",
          "type": "address"
        },
        {
          "internalType": "uint8",
          "name": "role",
          "type": "uint8"
        },
        {
          "internalType": "string",
          "name": "name",
          "type": "string"
        }
      ],
      "name": "assignRole",
      "outputs": [],
      "stateMutability": "nonpayable",
      "type": "function"
    },
    {
      "inputs": [
        {
          "internalType": "string",
          "name": "",
          "type": "string"
        }
      ],
      "name": "batches",
      "outputs": [
        {
          "internalType": "string",
          "name": "batchId",
          "type": "string"
        },
        {
          "internalType": "string",
          "name": "herbName",
          "type": "string"
        },
        {
          "internalType": "string",
          "name": "herbLatin",
          "type": "string"
        },
        {
          "internalType": "uint256",
          "name": "quantityGrams",
          "type": "uint256"
        },
        {
          "internalType": "enum HerbTrace.BatchStatus",
          "name": "status",
          "type": "uint8"
        },
        {
          "internalType": "enum HerbTrace.NodeType",
          "name": "currentNode",
          "type": "uint8"
        },
        {
          "internalType": "address",
          "name": "creator",
          "type": "address"
        },
        {
          "internalType": "uint256",
          "name": "createdAt",
          "type": "uint256"
        },
        {
          "internalType": "uint256",
          "name": "eventCount",
          "type": "uint256"
        }
      ],
      "stateMutability": "view",
      "type": "function"
    },
    {
      "inputs": [
        {
          "internalType": "string",
          "name": "batchId",
          "type": "string"
        },
        {
          "internalType": "string",
          "name": "herbName",
          "type": "string"
        },
        {
          "internalType": "string",
          "name": "herbLatin",
          "type": "string"
        },
        {
          "internalType": "uint256",
          "name": "quantityGrams",
          "type": "uint256"
        },
        {
          "internalType": "int256",
          "name": "latE6",
          "type": "int256"
        },
        {
          "internalType": "int256",
          "name": "lngE6",
          "type": "int256"
        },
        {
          "internalType": "string",
          "name": "locationName",
          "type": "string"
        },
        {
          "internalType": "string",
          "name": "notes",
          "type": "string"
        },
        {
          "internalType": "string",
          "name": "photoHash",
          "type": "string"
        }
      ],
      "name": "createBatch",
      "outputs": [],
      "stateMutability": "nonpayable",
      "type": "function"
    },
    {
      "inputs": [],
      "name": "getAllBatchIds",
      "outputs": [
        {
          "internalType": "string[]",
          "name": "",
          "type": "string[]"
        }
      ],
      "stateMutability": "view",
      "type": "function"
    },
    {
      "inputs": [
        {
          "internalType": "string",
          "name": "batchId",
          "type": "string"
        }
      ],
      "name": "getBatch",
      "outputs": [
        {
          "internalType": "string",
          "name": "herbName",
          "type": "string"
        },
        {
          "internalType": "string",
          "name": "herbLatin",
          "type": "string"
        },
        {
          "internalType": "uint256",
          "name": "quantityGrams",
          "type": "uint256"
        },
        {
          "internalType": "uint8",
          "name": "status",
          "type": "uint8"
        },
        {
          "internalType": "uint8",
          "name": "currentNode",
          "type": "uint8"
        },
        {
          "internalType": "address",
          "name": "creator",
          "type": "address"
        },
        {
          "internalType": "uint256",
          "name": "createdAt",
          "type": "uint256"
        },
        {
          "internalType": "uint256",
          "name": "eventCount",
          "type": "uint256"
        }
      ],
      "stateMutability": "view",
      "type": "function"
    },
    {
      "inputs": [
        {
          "internalType": "string",
          "name": "batchId",
          "type": "string"
        },
        {
          "internalType": "uint256",
          "name": "index",
          "type": "uint256"
        }
      ],
      "name": "getEvent",
      "outputs": [
        {
          "internalType": "uint8",
          "name": "nodeType",
          "type": "uint8"
        },
        {
          "internalType": "address",
          "name": "actor",
          "type": "address"
        },
        {
          "internalType": "string",
          "name": "actorName",
          "type": "string"
        },
        {
          "internalType": "int256",
          "name": "latitude",
          "type": "int256"
        },
        {
          "internalType": "int256",
          "name": "longitude",
          "type": "int256"
        },
        {
          "internalType": "string",
          "name": "locationName",
          "type": "string"
        },
        {
          "internalType": "string",
          "name": "notes",
          "type": "string"
        },
        {
          "internalType": "string",
          "name": "photoHash",
          "type": "string"
        },
        {
          "internalType": "uint256",
          "name": "timestamp",
          "type": "uint256"
        },
        {
          "internalType": "uint256",
          "name": "blockNumber",
          "type": "uint256"
        }
      ],
      "stateMutability": "view",
      "type": "function"
    },
    {
      "inputs": [
        {
          "internalType": "string",
          "name": "batchId",
          "type": "string"
        }
      ],
      "name": "getEventCount",
      "outputs": [
        {
          "internalType": "uint256",
          "name": "",
          "type": "uint256"
        }
      ],
      "stateMutability": "view",
      "type": "function"
    },
    {
      "inputs": [],
      "name": "getStats",
      "outputs": [
        {
          "internalType": "uint256",
          "name": "_totalBatches",
          "type": "uint256"
        },
        {
          "internalType": "uint256",
          "name": "_totalEvents",
          "type": "uint256"
        }
      ],
      "stateMutability": "view",
      "type": "function"
    },
    {
      "inputs": [
        {
          "internalType": "string",
          "name": "batchId",
          "type": "string"
        },
        {
          "internalType": "enum HerbTrace.NodeType",
          "name": "nodeType",
          "type": "uint8"
        },
        {
          "internalType": "int256",
          "name": "latE6",
          "type": "int256"
        },
        {
          "internalType": "int256",
          "name": "lngE6",
          "type": "int256"
        },
        {
          "internalType": "string",
          "name": "locationName",
          "type": "string"
        },
        {
          "internalType": "string",
          "name": "notes",
          "type": "string"
        },
        {
          "internalType": "string",
          "name": "photoHash",
          "type": "string"
        }
      ],
      "name": "logEvent",
      "outputs": [],
      "stateMutability": "nonpayable",
      "type": "function"
    },
    {
      "inputs": [],
      "name": "owner",
      "outputs": [
        {
          "internalType": "address",
          "name": "",
          "type": "address"
        }
      ],
      "stateMutability": "view",
      "type": "function"
    },
    {
      "inputs": [
        {
          "internalType": "address",
          "name": "",
          "type": "address"
        }
      ],
      "name": "roles",
      "outputs": [
        {
          "internalType": "uint8",
          "name": "",
          "type": "uint8"
        }
      ],
      "stateMutability": "view",
      "type": "function"
    },
    {
      "inputs": [
        {
          "internalType": "uint8",
          "name": "role",
          "type": "uint8"
        },
        {
          "internalType": "string",
          "name": "name",
          "type": "string"
        }
      ],
      "name": "selfRegister",
      "outputs": [],
      "stateMutability": "nonpayable",
      "type": "function"
    },
    {
      "inputs": [],
      "name": "totalBatches",
      "outputs": [
        {
          "internalType": "uint256",
          "name": "",
          "type": "uint256"
        }
      ],
      "stateMutability": "view",
      "type": "function"
    },
    {
      "inputs": [],
      "name": "totalEvents",
      "outputs": [
        {
          "internalType": "uint256",
          "name": "",
          "type": "uint256"
        }
      ],
      "stateMutability": "view",
      "type": "function"
    }
  ],
  "bytecode": "0x60806040523480156200001157600080fd5b50600080546001600160a01b031916339081178255808252600560208181526040808520805460ff191684179055805180820182529283526420b236b4b760d91b83830152928452600690529120906200006c90826200011a565b50620001e6565b634e487b7160e01b600052604160045260246000fd5b600181811c908216806200009e57607f821691505b602082108103620000bf57634e487b7160e01b600052602260045260246000fd5b50919050565b601f82111562000115576000816000526020600020601f850160051c81016020861015620000f05750805b601f850160051c820191505b818110156200011157828155600101620000fc565b5050505b505050565b81516001600160401b0381111562000136576200013662000073565b6200014e8162000147845462000089565b84620000c5565b602080601f8311600181146200018657600084156200016d5750858301515b600019600386901b1c1916600185901b17855562000111565b600085815260208120601f198616915b82811015620001b75788860151825594840194600190910190840162000196565b5085821015620001d65787850151600019600388901b60f8161c191681555b5050505050600190811b01905550565b61237780620001f66000396000f3fe608060405234801561001057600080fd5b50600436106101005760003560e01c8063ad10faf411610097578063c4a8a67011610066578063c4a8a6701461024c578063c59d484714610275578063f5a9bca614610290578063f9ca4274146102a357600080fd5b8063ad10faf414610208578063ba8706861461021b578063bbe343c814610224578063bce069471461023757600080fd5b80637ef1446a116100d35780637ef1446a1461016d5780638da5cb5b1461019557806399374642146101c05780639bcf09b2146101f557600080fd5b8063290b17ec1461010557806367c2ff701461012e57806369ff6abb146101415780636dafee6d14610158575b600080fd5b6101186101133660046119d5565b6102ca565b6040516101259190611a3e565b60405180910390f35b61011861013c366004611a74565b610376565b61014a60015481565b604051908152602001610125565b61016b610166366004611b43565b61038f565b005b61018061017b366004611ba1565b6104a7565b60405161012599989796959493929190611c08565b6000546101a8906001600160a01b031681565b6040516001600160a01b039091168152602001610125565b6101e36101ce366004611a74565b60056020526000908152604090205460ff1681565b60405160ff9091168152602001610125565b61016b610203366004611ca9565b6106a2565b61014a610216366004611ba1565b610bcb565b61014a60025481565b61016b610232366004611d7a565b610c42565b61023f610d76565b6040516101259190611dc8565b61025f61025a366004611e2c565b610e4f565b6040516101259a99989796959493929190611e71565b60015460025460408051928352602083019190915201610125565b61016b61029e366004611f03565b611203565b6102b66102b1366004611ba1565b6117bb565b604051610125989796959493929190612017565b600781815481106102da57600080fd5b9060005260206000200160009150905080546102f59061207c565b80601f01602080910402602001604051908101604052809291908181526020018280546103219061207c565b801561036e5780601f106103435761010080835404028352916020019161036e565b820191906000526020600020905b81548152906001019060200180831161035157829003601f168201915b505050505081565b600660205260009081526040902080546102f59061207c565b6000546001600160a01b031633146103da5760405162461bcd60e51b81526020600482015260096024820152682737ba1037bbb732b960b91b60448201526064015b60405180910390fd5b60018260ff16101580156103f2575060058260ff1611155b61042d5760405162461bcd60e51b815260206004820152600c60248201526b496e76616c696420726f6c6560a01b60448201526064016103d1565b6001600160a01b0383166000908152600560209081526040808320805460ff191660ff8716179055600690915290206104668282612101565b507f6f9e8382effc1f2659a04b480fc00e03e9ea704a05c90d74db22a5fb12ee46af83838360405161049a939291906121c1565b60405180910390a1505050565b80516020818301810180516003825292820191909301209152805481906104cd9061207c565b80601f01602080910402602001604051908101604052809291908181526020018280546104f99061207c565b80156105465780601f1061051b57610100808354040283529160200191610546565b820191906000526020600020905b81548152906001019060200180831161052957829003601f168201915b50505050509080600101805461055b9061207c565b80601f01602080910402602001604051908101604052809291908181526020018280546105879061207c565b80156105d45780601f106105a9576101008083540402835291602001916105d4565b820191906000526020600020905b8154815290600101906020018083116105b757829003601f168201915b5050505050908060020180546105e99061207c565b80601f01602080910402602001604051908101604052809291908181526020018280546106159061207c565b80156106625780601f1061063757610100808354040283529160200191610662565b820191906000526020600020905b81548152906001019060200180831161064557829003601f168201915b505050506003830154600484015460058501546006909501549394919360ff808316945061010083041692620100009092046001600160a01b0316919089565b8660006003826040516106b591906121f7565b90815260405190819003602001902080546106cf9061207c565b9050116106ee5760405162461bcd60e51b81526004016103d190612213565b87600060038260405161070191906121f7565b9081526040519081900360200190206004015460ff16600281111561072857610728611bde565b146107685760405162461bcd60e51b815260206004820152601060248201526f4261746368206e6f742061637469766560801b60448201526064016103d1565b600088600381111561077c5761077c611bde565b610787906001612252565b3360009081526005602052604090205490915060ff808316911610156107ef5760405162461bcd60e51b815260206004820152601860248201527f57726f6e6720726f6c6520666f722074686973206e6f6465000000000000000060448201526064016103d1565b600060038b60405161080191906121f7565b9081526020016040518091039020905060048b60405161082191906121f7565b90815260200160405180910390206040518061012001604052808c600381111561084d5761084d611bde565b815233602080830182905260009182526006905260409081902080549190920191906108789061207c565b80601f01602080910402602001604051908101604052809291908181526020018280546108a49061207c565b80156108f15780601f106108c6576101008083540402835291602001916108f1565b820191906000526020600020905b8154815290600101906020018083116108d457829003601f168201915b5050505050815260200160405180606001604052808d81526020018c81526020018b815250815260200183600101805461092a9061207c565b80601f01602080910402602001604051908101604052809291908181526020018280546109569061207c565b80156109a35780601f10610978576101008083540402835291602001916109a3565b820191906000526020600020905b81548152906001019060200180831161098657829003601f168201915b505050918352505060208082018a905260408201899052426060830152436080909201919091528254600181810185556000948552919093208251600a909402018054929390929091839160ff191690836003811115610a0557610a05611bde565b0217905550602082015181546001600160a01b0390911661010002610100600160a81b031990911617815560408201516001820190610a449082612101565b5060608201518051600283019081556020820151600384015560408201516004840190610a719082612101565b50505060808201516005820190610a889082612101565b5060a08201516006820190610a9d9082612101565b5060c08201516007820190610ab29082612101565b5060e08201516008820155610100918201516009909101556004820180548c9261ff001990911690836003811115610aec57610aec611bde565b0217905550600681018054906000610b0383612271565b909155505060028054906000610b1883612271565b90915550600390508a6003811115610b3257610b32611bde565b03610b815760048101805460ff191660011790556040517fdf359e734cc5db88499709660fa37d5e114b39d04a807ce9ef4069679ea66cb390610b78908d90429061228a565b60405180910390a15b7f64c442c919cb93f739cf8ababa81b26ae9cc7b3785c57997219b597fd44c98e08b8b3342604051610bb694939291906122ac565b60405180910390a15050505050505050505050565b6000816000600382604051610be091906121f7565b9081526040519081900360200190208054610bfa9061207c565b905011610c195760405162461bcd60e51b81526004016103d190612213565b600483604051610c2991906121f7565b9081526040519081900360200190205491505b50919050565b60018260ff1610158015610c5a575060048260ff1611155b610cb15760405162461bcd60e51b815260206004820152602260248201527f496e76616c696420726f6c6520666f722073656c662d7265676973747261746960448201526137b760f11b60648201526084016103d1565b3360009081526005602052604090205460ff1615610d065760405162461bcd60e51b8152602060048201526012602482015271105b1c9958591e481c9959da5cdd195c995960721b60448201526064016103d1565b336000908152600560209081526040808320805460ff191660ff871617905560069091529020610d368282612101565b507f6f9e8382effc1f2659a04b480fc00e03e9ea704a05c90d74db22a5fb12ee46af338383604051610d6a939291906121c1565b60405180910390a15050565b60606007805480602002602001604051908101604052809291908181526020016000905b82821015610e46578382906000526020600020018054610db99061207c565b80601f0160208091040260200160405190810160405280929190818152602001828054610de59061207c565b8015610e325780601f10610e0757610100808354040283529160200191610e32565b820191906000526020600020905b815481529060010190602001808311610e1557829003601f168201915b505050505081526020019060010190610d9a565b50505050905090565b600080606060008060608060606000808b6000600382604051610e7291906121f7565b9081526040519081900360200190208054610e8c9061207c565b905011610eab5760405162461bcd60e51b81526004016103d190612213565b60048d604051610ebb91906121f7565b908152604051908190036020019020548c10610f0f5760405162461bcd60e51b8152602060048201526013602482015272496e646578206f7574206f6620626f756e647360681b60448201526064016103d1565b600060048e604051610f2191906121f7565b90815260200160405180910390208d81548110610f4057610f406122e9565b60009182526020909120600a90910201805490915060ff166003811115610f6957610f69611bde565b8160000160019054906101000a90046001600160a01b0316826001018360020160000154846002016001015485600201600201866006018760070188600801548960090154878054610fba9061207c565b80601f0160208091040260200160405190810160405280929190818152602001828054610fe69061207c565b80156110335780601f1061100857610100808354040283529160200191611033565b820191906000526020600020905b81548152906001019060200180831161101657829003601f168201915b505050505097508480546110469061207c565b80601f01602080910402602001604051908101604052809291908181526020018280546110729061207c565b80156110bf5780601f10611094576101008083540402835291602001916110bf565b820191906000526020600020905b8154815290600101906020018083116110a257829003601f168201915b505050505094508380546110d29061207c565b80601f01602080910402602001604051908101604052809291908181526020018280546110fe9061207c565b801561114b5780601f106111205761010080835404028352916020019161114b565b820191906000526020600020905b81548152906001019060200180831161112e57829003601f168201915b5050505050935082805461115e9061207c565b80601f016020809104026020016040519081016040528092919081815260200182805461118a9061207c565b80156111d75780601f106111ac576101008083540402835291602001916111d7565b820191906000526020600020905b8154815290600101906020018083116111ba57829003601f168201915b505050505092509b509b509b509b509b509b509b509b509b509b5050509295989b9194979a5092959850565b3360009081526005602052604090205460019060ff1681111561125c5760405162461bcd60e51b8152602060048201526011602482015270496e73756666696369656e7420726f6c6560781b60448201526064016103d1565b60008a51116112a15760405162461bcd60e51b815260206004820152601160248201527010985d18da081251081c995c5d5a5c9959607a1b60448201526064016103d1565b60038a6040516112b191906121f7565b90815260405190819003602001902080546112cb9061207c565b15905061131a5760405162461bcd60e51b815260206004820152601760248201527f426174636820494420616c72656164792065786973747300000000000000000060448201526064016103d1565b60008951116113605760405162461bcd60e51b815260206004820152601260248201527112195c98881b985b59481c995c5d5a5c995960721b60448201526064016103d1565b6040518061012001604052808b81526020018a81526020018981526020018881526020016000600281111561139757611397611bde565b815260200160008152602001336001600160a01b03168152602001428152602001600181525060038b6040516113cd91906121f7565b908152604051908190036020019020815181906113ea9082612101565b50602082015160018201906113ff9082612101565b50604082015160028201906114149082612101565b5060608201516003820155608082015160048201805460ff1916600183600281111561144257611442611bde565b021790555060a082015160048201805461ff00191661010083600381111561146c5761146c611bde565b021790555060c0820151600480830180546001600160a01b03909316620100000262010000600160b01b03199093169290921790915560e08301516005830155610100909201516006909101556040516114c7908c906121f7565b9081526040805160209281900383018120610120820183526000808352338584018190528152600690945292829020805491928301916115069061207c565b80601f01602080910402602001604051908101604052809291908181526020018280546115329061207c565b801561157f5780601f106115545761010080835404028352916020019161157f565b820191906000526020600020905b81548152906001019060200180831161156257829003601f168201915b505050918352505060408051606080820183528b825260208281018c90528284018b9052808501929092529183018e9052908201879052608082018690524260a08301524360c0909201919091528254600181810185556000948552919093208251600a909402018054929390929091839160ff19169083600381111561160857611608611bde565b0217905550602082015181546001600160a01b0390911661010002610100600160a81b0319909116178155604082015160018201906116479082612101565b50606082015180516002830190815560208201516003840155604082015160048401906116749082612101565b5050506080820151600582019061168b9082612101565b5060a082015160068201906116a09082612101565b5060c082015160078201906116b59082612101565b5060e0820151600882015561010090910151600990910155600780546001810182556000919091527fa66cc928b5edb82af9bd49922954155ab7b0942694bea4ce44661d9a8736c688016117098b82612101565b506001805490600061171a83612271565b90915550506002805490600061172f83612271565b91905055507fd8045a119a7c2df6cea5c487e90f857abb1b84a5a356331229d0020ce9debc628a8a334260405161176994939291906122ff565b60405180910390a17f64c442c919cb93f739cf8ababa81b26ae9cc7b3785c57997219b597fd44c98e08a600033426040516117a794939291906122ac565b60405180910390a150505050505050505050565b6060806000806000806000808860006003826040516117da91906121f7565b90815260405190819003602001902080546117f49061207c565b9050116118135760405162461bcd60e51b81526004016103d190612213565b600060038b60405161182591906121f7565b9081526040519081900360200190206003810154600482015491925060018301916002808501929160ff169081111561186057611860611bde565b6004850154610100900460ff16600381111561187e5761187e611bde565b8560040160029054906101000a90046001600160a01b0316866005015487600601548780546118ac9061207c565b80601f01602080910402602001604051908101604052809291908181526020018280546118d89061207c565b80156119255780601f106118fa57610100808354040283529160200191611925565b820191906000526020600020905b81548152906001019060200180831161190857829003601f168201915b505050505097508680546119389061207c565b80601f01602080910402602001604051908101604052809291908181526020018280546119649061207c565b80156119b15780601f10611986576101008083540402835291602001916119b1565b820191906000526020600020905b81548152906001019060200180831161199457829003601f168201915b50505050509650995099509950995099509950995099505050919395975091939597565b6000602082840312156119e757600080fd5b5035919050565b60005b83811015611a095781810151838201526020016119f1565b50506000910152565b60008151808452611a2a8160208601602086016119ee565b601f01601f19169290920160200192915050565b602081526000611a516020830184611a12565b9392505050565b80356001600160a01b0381168114611a6f57600080fd5b919050565b600060208284031215611a8657600080fd5b611a5182611a58565b803560ff81168114611a6f57600080fd5b634e487b7160e01b600052604160045260246000fd5b600082601f830112611ac757600080fd5b813567ffffffffffffffff80821115611ae257611ae2611aa0565b604051601f8301601f19908116603f01168101908282118183101715611b0a57611b0a611aa0565b81604052838152866020858801011115611b2357600080fd5b836020870160208301376000602085830101528094505050505092915050565b600080600060608486031215611b5857600080fd5b611b6184611a58565b9250611b6f60208501611a8f565b9150604084013567ffffffffffffffff811115611b8b57600080fd5b611b9786828701611ab6565b9150509250925092565b600060208284031215611bb357600080fd5b813567ffffffffffffffff811115611bca57600080fd5b611bd684828501611ab6565b949350505050565b634e487b7160e01b600052602160045260246000fd5b60048110611c0457611c04611bde565b9052565b6000610120808352611c1c8184018d611a12565b90508281036020840152611c30818c611a12565b90508281036040840152611c44818b611a12565b91505087606083015260038710611c5d57611c5d611bde565b866080830152611c7060a0830187611bf4565b6001600160a01b039490941660c082015260e0810192909252610100909101529695505050505050565b803560048110611a6f57600080fd5b600080600080600080600060e0888a031215611cc457600080fd5b873567ffffffffffffffff80821115611cdc57600080fd5b611ce88b838c01611ab6565b9850611cf660208b01611c9a565b975060408a0135965060608a0135955060808a0135915080821115611d1a57600080fd5b611d268b838c01611ab6565b945060a08a0135915080821115611d3c57600080fd5b611d488b838c01611ab6565b935060c08a0135915080821115611d5e57600080fd5b50611d6b8a828b01611ab6565b91505092959891949750929550565b60008060408385031215611d8d57600080fd5b611d9683611a8f565b9150602083013567ffffffffffffffff811115611db257600080fd5b611dbe85828601611ab6565b9150509250929050565b600060208083016020845280855180835260408601915060408160051b87010192506020870160005b82811015611e1f57603f19888603018452611e0d858351611a12565b94509285019290850190600101611df1565b5092979650505050505050565b60008060408385031215611e3f57600080fd5b823567ffffffffffffffff811115611e5657600080fd5b611e6285828601611ab6565b95602094909401359450505050565b60ff8b1681526001600160a01b038a16602082015261014060408201819052600090611e9f8382018c611a12565b905089606084015288608084015282810360a0840152611ebf8189611a12565b905082810360c0840152611ed38188611a12565b905082810360e0840152611ee78187611a12565b6101008401959095525050610120015298975050505050505050565b60008060008060008060008060006101208a8c031215611f2257600080fd5b893567ffffffffffffffff80821115611f3a57600080fd5b611f468d838e01611ab6565b9a5060208c0135915080821115611f5c57600080fd5b611f688d838e01611ab6565b995060408c0135915080821115611f7e57600080fd5b611f8a8d838e01611ab6565b985060608c0135975060808c0135965060a08c0135955060c08c0135915080821115611fb557600080fd5b611fc18d838e01611ab6565b945060e08c0135915080821115611fd757600080fd5b611fe38d838e01611ab6565b93506101008c0135915080821115611ffa57600080fd5b506120078c828d01611ab6565b9150509295985092959850929598565b600061010080835261202b8184018c611a12565b9050828103602084015261203f818b611a12565b6040840199909952505060ff95861660608201529390941660808401526001600160a01b039190911660a083015260c082015260e0015292915050565b600181811c9082168061209057607f821691505b602082108103610c3c57634e487b7160e01b600052602260045260246000fd5b601f8211156120fc576000816000526020600020601f850160051c810160208610156120d95750805b601f850160051c820191505b818110156120f8578281556001016120e5565b5050505b505050565b815167ffffffffffffffff81111561211b5761211b611aa0565b61212f81612129845461207c565b846120b0565b602080601f831160018114612164576000841561214c5750858301515b600019600386901b1c1916600185901b1785556120f8565b600085815260208120601f198616915b8281101561219357888601518255948401946001909101908401612174565b50858210156121b15787850151600019600388901b60f8161c191681555b5050505050600190811b01905550565b6001600160a01b038416815260ff831660208201526060604082018190526000906121ee90830184611a12565b95945050505050565b600082516122098184602087016119ee565b9190910192915050565b6020808252600f908201526e10985d18da081b9bdd08199bdd5b99608a1b604082015260600190565b634e487b7160e01b600052601160045260246000fd5b60ff818116838216019081111561226b5761226b61223c565b92915050565b6000600182016122835761228361223c565b5060010190565b60408152600061229d6040830185611a12565b90508260208301529392505050565b6080815260006122bf6080830187611a12565b90506122ce6020830186611bf4565b6001600160a01b039390931660408201526060015292915050565b634e487b7160e01b600052603260045260246000fd5b6080815260006123126080830187611a12565b82810360208401526123248187611a12565b6001600160a01b039590951660408401525050606001529291505056fea264697066735822122073406a4c744ac290943ec436c7b9f60f4faa163ec59266ffadc98a9c53b2868764736f6c63430008180033",
  "linkReferences": {},
  "deployedLinkReferences": {}
}